{
  "_format": "hh-sol-artifact-1",
  "contractName": "familynft",
  "sourceName": "contracts/myfamilynft.sol",
  "abi": [
    {
      "inputs": [
        {
          "internalType": "string",
          "name": "_name",
          "type": "string"
        }
      ],
      "stateMutability": "nonpayable",
      "type": "constructor"
    },
    {
      "inputs": [],
      "name": "LSP4TokenNameNotEditable",
      "type": "error"
    },
    {
      "inputs": [],
      "name": "LSP4TokenSymbolNotEditable",
      "type": "error"
    },
    {
      "inputs": [],
      "name": "LSP8CannotSendToAddressZero",
      "type": "error"
    },
    {
      "inputs": [],
      "name": "LSP8CannotUseAddressZeroAsOperator",
      "type": "error"
    },
    {
      "inputs": [],
      "name": "LSP8InvalidTransferBatch",
      "type": "error"
    },
    {
      "inputs": [
        {
          "internalType": "bytes32",
          "name": "tokenId",
          "type": "bytes32"
        }
      ],
      "name": "LSP8NonExistentTokenId",
      "type": "error"
    },
    {
      "inputs": [
        {
          "internalType": "bytes32",
          "name": "tokenId",
          "type": "bytes32"
        },
        {
          "internalType": "address",
          "name": "caller",
          "type": "address"
        }
      ],
      "name": "LSP8NotTokenOperator",
      "type": "error"
    },
    {
      "inputs": [
        {
          "internalType": "address",
          "name": "tokenOwner",
          "type": "address"
        },
        {
          "internalType": "bytes32",
          "name": "tokenId",
          "type": "bytes32"
        },
        {
          "internalType": "address",
          "name": "caller",
          "type": "address"
        }
      ],
      "name": "LSP8NotTokenOwner",
      "type": "error"
    },
    {
      "inputs": [
        {
          "internalType": "address",
          "name": "tokenReceiver",
          "type": "address"
        }
      ],
      "name": "LSP8NotifyTokenReceiverContractMissingLSP1Interface",
      "type": "error"
    },
    {
      "inputs": [
        {
          "internalType": "address",
          "name": "tokenReceiver",
          "type": "address"
        }
      ],
      "name": "LSP8NotifyTokenReceiverIsEOA",
      "type": "error"
    },
    {
      "inputs": [
        {
          "internalType": "bytes32",
          "name": "tokenId",
          "type": "bytes32"
        }
      ],
      "name": "LSP8TokenIdAlreadyMinted",
      "type": "error"
    },
    {
      "anonymous": false,
      "inputs": [
        {
          "indexed": true,
          "internalType": "address",
          "name": "operator",
          "type": "address"
        },
        {
          "indexed": true,
          "internalType": "address",
          "name": "tokenOwner",
          "type": "address"
        },
        {
          "indexed": true,
          "internalType": "bytes32",
          "name": "tokenId",
          "type": "bytes32"
        }
      ],
      "name": "AuthorizedOperator",
      "type": "event"
    },
    {
      "anonymous": false,
      "inputs": [
        {
          "indexed": true,
          "internalType": "bytes32",
          "name": "dataKey",
          "type": "bytes32"
        }
      ],
      "name": "DataChanged",
      "type": "event"
    },
    {
      "anonymous": false,
      "inputs": [
        {
          "indexed": true,
          "internalType": "address",
          "name": "previousOwner",
          "type": "address"
        },
        {
          "indexed": true,
          "internalType": "address",
          "name": "newOwner",
          "type": "address"
        }
      ],
      "name": "OwnershipTransferred",
      "type": "event"
    },
    {
      "anonymous": false,
      "inputs": [
        {
          "indexed": true,
          "internalType": "address",
          "name": "operator",
          "type": "address"
        },
        {
          "indexed": true,
          "internalType": "address",
          "name": "tokenOwner",
          "type": "address"
        },
        {
          "indexed": true,
          "internalType": "bytes32",
          "name": "tokenId",
          "type": "bytes32"
        }
      ],
      "name": "RevokedOperator",
      "type": "event"
    },
    {
      "anonymous": false,
      "inputs": [
        {
          "indexed": false,
          "internalType": "address",
          "name": "operator",
          "type": "address"
        },
        {
          "indexed": true,
          "internalType": "address",
          "name": "from",
          "type": "address"
        },
        {
          "indexed": true,
          "internalType": "address",
          "name": "to",
          "type": "address"
        },
        {
          "indexed": true,
          "internalType": "bytes32",
          "name": "tokenId",
          "type": "bytes32"
        },
        {
          "indexed": false,
          "internalType": "bool",
          "name": "force",
          "type": "bool"
        },
        {
          "indexed": false,
          "internalType": "bytes",
          "name": "data",
          "type": "bytes"
        }
      ],
      "name": "Transfer",
      "type": "event"
    },
    {
      "inputs": [
        {
          "internalType": "address",
          "name": "to",
          "type": "address"
        }
      ],
      "name": "addAdmin",
      "outputs": [],
      "stateMutability": "nonpayable",
      "type": "function"
    },
    {
      "inputs": [
        {
          "internalType": "uint256",
          "name": "_id",
          "type": "uint256"
        },
        {
          "internalType": "string",
          "name": "_action",
          "type": "string"
        }
      ],
      "name": "addHistory",
      "outputs": [],
      "stateMutability": "nonpayable",
      "type": "function"
    },
    {
      "inputs": [
        {
          "internalType": "string",
          "name": "color",
          "type": "string"
        },
        {
          "internalType": "string",
          "name": "size",
          "type": "string"
        },
        {
          "internalType": "string",
          "name": "style",
          "type": "string"
        }
      ],
      "name": "addOrder",
      "outputs": [],
      "stateMutability": "nonpayable",
      "type": "function"
    },
    {
      "inputs": [
        {
          "internalType": "address",
          "name": "operator",
          "type": "address"
        },
        {
          "internalType": "bytes32",
          "name": "tokenId",
          "type": "bytes32"
        }
      ],
      "name": "authorizeOperator",
      "outputs": [],
      "stateMutability": "nonpayable",
      "type": "function"
    },
    {
      "inputs": [
        {
          "internalType": "address",
          "name": "tokenOwner",
          "type": "address"
        }
      ],
      "name": "balanceOf",
      "outputs": [
        {
          "internalType": "uint256",
          "name": "",
          "type": "uint256"
        }
      ],
      "stateMutability": "view",
      "type": "function"
    },
    {
      "inputs": [
        {
          "internalType": "bytes32[]",
          "name": "dataKeys",
          "type": "bytes32[]"
        }
      ],
      "name": "getData",
      "outputs": [
        {
          "internalType": "bytes[]",
          "name": "dataValues",
          "type": "bytes[]"
        }
      ],
      "stateMutability": "view",
      "type": "function"
    },
    {
      "inputs": [
        {
          "internalType": "bytes32",
          "name": "dataKey",
          "type": "bytes32"
        }
      ],
      "name": "getData",
      "outputs": [
        {
          "internalType": "bytes",
          "name": "dataValue",
          "type": "bytes"
        }
      ],
      "stateMutability": "view",
      "type": "function"
    },
    {
      "inputs": [
        {
          "internalType": "bytes32",
          "name": "tokenId",
          "type": "bytes32"
        }
      ],
      "name": "getOperatorsOf",
      "outputs": [
        {
          "internalType": "address[]",
          "name": "",
          "type": "address[]"
        }
      ],
      "stateMutability": "view",
      "type": "function"
    },
    {
      "inputs": [
        {
          "internalType": "address",
          "name": "operator",
          "type": "address"
        },
        {
          "internalType": "bytes32",
          "name": "tokenId",
          "type": "bytes32"
        }
      ],
      "name": "isOperatorFor",
      "outputs": [
        {
          "internalType": "bool",
          "name": "",
          "type": "bool"
        }
      ],
      "stateMutability": "view",
      "type": "function"
    },
    {
      "inputs": [
        {
          "internalType": "address",
          "name": "to",
          "type": "address"
        },
        {
          "internalType": "string",
          "name": "data",
          "type": "string"
        }
      ],
      "name": "mint",
      "outputs": [],
      "stateMutability": "nonpayable",
      "type": "function"
    },
    {
      "inputs": [],
      "name": "owner",
      "outputs": [
        {
          "internalType": "address",
          "name": "",
          "type": "address"
        }
      ],
      "stateMutability": "view",
      "type": "function"
    },
    {
      "inputs": [
        {
          "internalType": "address",
          "name": "to",
          "type": "address"
        }
      ],
      "name": "removeAdmin",
      "outputs": [],
      "stateMutability": "nonpayable",
      "type": "function"
    },
    {
      "inputs": [
        {
          "internalType": "uint256",
          "name": "index",
          "type": "uint256"
        }
      ],
      "name": "removeOrder",
      "outputs": [],
      "stateMutability": "nonpayable",
      "type": "function"
    },
    {
      "inputs": [],
      "name": "renounceOwnership",
      "outputs": [],
      "stateMutability": "nonpayable",
      "type": "function"
    },
    {
      "inputs": [
        {
          "internalType": "address",
          "name": "operator",
          "type": "address"
        },
        {
          "internalType": "bytes32",
          "name": "tokenId",
          "type": "bytes32"
        }
      ],
      "name": "revokeOperator",
      "outputs": [],
      "stateMutability": "nonpayable",
      "type": "function"
    },
    {
      "inputs": [
        {
          "internalType": "bytes32[]",
          "name": "dataKeys",
          "type": "bytes32[]"
        },
        {
          "internalType": "bytes[]",
          "name": "dataValues",
          "type": "bytes[]"
        }
      ],
      "name": "setData",
      "outputs": [],
      "stateMutability": "nonpayable",
      "type": "function"
    },
    {
      "inputs": [
        {
          "internalType": "bytes32",
          "name": "dataKey",
          "type": "bytes32"
        },
        {
          "internalType": "bytes",
          "name": "dataValue",
          "type": "bytes"
        }
      ],
      "name": "setData",
      "outputs": [],
      "stateMutability": "nonpayable",
      "type": "function"
    },
    {
      "inputs": [
        {
          "internalType": "bytes4",
          "name": "interfaceId",
          "type": "bytes4"
        }
      ],
      "name": "supportsInterface",
      "outputs": [
        {
          "internalType": "bool",
          "name": "",
          "type": "bool"
        }
      ],
      "stateMutability": "view",
      "type": "function"
    },
    {
      "inputs": [
        {
          "internalType": "address",
          "name": "tokenOwner",
          "type": "address"
        }
      ],
      "name": "tokenIdsOf",
      "outputs": [
        {
          "internalType": "bytes32[]",
          "name": "",
          "type": "bytes32[]"
        }
      ],
      "stateMutability": "view",
      "type": "function"
    },
    {
      "inputs": [
        {
          "internalType": "bytes32",
          "name": "tokenId",
          "type": "bytes32"
        }
      ],
      "name": "tokenOwnerOf",
      "outputs": [
        {
          "internalType": "address",
          "name": "",
          "type": "address"
        }
      ],
      "stateMutability": "view",
      "type": "function"
    },
    {
      "inputs": [],
      "name": "totalSupply",
      "outputs": [
        {
          "internalType": "uint256",
          "name": "",
          "type": "uint256"
        }
      ],
      "stateMutability": "view",
      "type": "function"
    },
    {
      "inputs": [
        {
          "internalType": "address",
          "name": "from",
          "type": "address"
        },
        {
          "internalType": "address",
          "name": "to",
          "type": "address"
        },
        {
          "internalType": "bytes32",
          "name": "tokenId",
          "type": "bytes32"
        },
        {
          "internalType": "bool",
          "name": "force",
          "type": "bool"
        },
        {
          "internalType": "bytes",
          "name": "data",
          "type": "bytes"
        }
      ],
      "name": "transfer",
      "outputs": [],
      "stateMutability": "nonpayable",
      "type": "function"
    },
    {
      "inputs": [
        {
          "internalType": "address[]",
          "name": "from",
          "type": "address[]"
        },
        {
          "internalType": "address[]",
          "name": "to",
          "type": "address[]"
        },
        {
          "internalType": "bytes32[]",
          "name": "tokenId",
          "type": "bytes32[]"
        },
        {
          "internalType": "bool",
          "name": "force",
          "type": "bool"
        },
        {
          "internalType": "bytes[]",
          "name": "data",
          "type": "bytes[]"
        }
      ],
      "name": "transferBatch",
      "outputs": [],
      "stateMutability": "nonpayable",
      "type": "function"
    },
    {
      "inputs": [
        {
          "internalType": "address",
          "name": "newOwner",
          "type": "address"
        }
      ],
      "name": "transferOwnership",
      "outputs": [],
      "stateMutability": "nonpayable",
      "type": "function"
    }
  ],
  "bytecode": "0x60806040523480156200001157600080fd5b506040516200414d3803806200414d833981810160405281019062000037919062000588565b6040518060400160405280600981526020017f46414d494c594e465400000000000000000000000000000000000000000000008152506040518060400160405280600481526020017f464e4654000000000000000000000000000000000000000000000000000000008152503382828280620000be81620001af60201b6200110c1760201c565b506200012e7feafec4d89fa9619884b60000a4d96624a38f7ac2d8d9a604ecf07c12c77e480c60001b6040518060400160405280600481526020017fa4d9662400000000000000000000000000000000000000000000000000000000815250620002b760201b6200120b1760201c565b620001687fdeba1e292f8ba88238e10ab3c7f88bd4be4fac56cad5194b6ecceaf653468af160001b84620002b760201b6200120b1760201c565b620001a27f2f0a68ab07768e01943a599e73362a0e17a63a72e94dd2e384d2c1d4db93275660001b83620002b760201b6200120b1760201c565b505050505050506200063e565b620001bf6200031260201b60201c565b73ffffffffffffffffffffffffffffffffffffffff168173ffffffffffffffffffffffffffffffffffffffff1614620002b45760008060009054906101000a900473ffffffffffffffffffffffffffffffffffffffff169050816000806101000a81548173ffffffffffffffffffffffffffffffffffffffff021916908373ffffffffffffffffffffffffffffffffffffffff1602179055508173ffffffffffffffffffffffffffffffffffffffff168173ffffffffffffffffffffffffffffffffffffffff167f8be0079c531659141344cd1fd0a4f28419497f9722a3daafe3b4186f6b6457e060405160405180910390a3505b50565b80600160008481526020019081526020016000209080519060200190620002e09291906200033b565b50817fcdf4e344c0d23d4cdd0474039d176c55b19d531070dbe17856bfb993a5b5720b60405160405180910390a25050565b60008060009054906101000a900473ffffffffffffffffffffffffffffffffffffffff16905090565b828054620003499062000608565b90600052602060002090601f0160209004810192826200036d5760008555620003b9565b82601f106200038857805160ff1916838001178555620003b9565b82800160010185558215620003b9579182015b82811115620003b85782518255916020019190600101906200039b565b5b509050620003c89190620003cc565b5090565b5b80821115620003e7576000816000905550600101620003cd565b5090565b6000604051905090565b600080fd5b600080fd5b600080fd5b600080fd5b6000601f19601f8301169050919050565b7f4e487b7100000000000000000000000000000000000000000000000000000000600052604160045260246000fd5b620004548262000409565b810181811067ffffffffffffffff821117156200047657620004756200041a565b5b80604052505050565b60006200048b620003eb565b905062000499828262000449565b919050565b600067ffffffffffffffff821115620004bc57620004bb6200041a565b5b620004c78262000409565b9050602081019050919050565b60005b83811015620004f4578082015181840152602081019050620004d7565b8381111562000504576000848401525b50505050565b6000620005216200051b846200049e565b6200047f565b90508281526020810184848401111562000540576200053f62000404565b5b6200054d848285620004d4565b509392505050565b600082601f8301126200056d576200056c620003ff565b5b81516200057f8482602086016200050a565b91505092915050565b600060208284031215620005a157620005a0620003f5565b5b600082015167ffffffffffffffff811115620005c257620005c1620003fa565b5b620005d08482850162000555565b91505092915050565b7f4e487b7100000000000000000000000000000000000000000000000000000000600052602260045260246000fd5b600060028204905060018216806200062157607f821691505b60208210811415620006385762000637620005d9565b5b50919050565b613aff806200064e6000396000f3fe608060405234801561001057600080fd5b50600436106101585760003560e01c806370480275116100c35780639645337a1161007c5780639645337a146103d3578063a3b261f2146103ef578063c0a721c51461041f578063cf5182ba1461043b578063d0def52114610457578063f2fde38b1461047357610158565b8063704802751461032757806370a0823114610343578063715018a61461037357806375236fe11461037d5780637f23690c146103995780638da5cb5b146103b557610158565b80632a3654a4116101155780632a3654a41461022f57806349a6078d1461025f5780634e3e6e9c1461028f578063511b6952146102bf57806354f6127f146102db578063559088681461030b57610158565b806301ffc9a71461015d5780630b0c6d821461018d57806314a6e293146101a95780631785f53c146101c557806318160ddd146101e1578063217b2270146101ff575b600080fd5b6101776004803603810190610172919061257b565b61048f565b60405161018491906125c3565b60405180910390f35b6101a760048036038101906101a29190612672565b6104f0565b005b6101c360048036038101906101be91906129a1565b610631565b005b6101df60048036038101906101da9190612a19565b6106dc565b005b6101e96107a5565b6040516101f69190612a5f565b60405180910390f35b61021960048036038101906102149190612a7a565b6107af565b6040516102269190612ab6565b60405180910390f35b61024960048036038101906102449190612672565b610863565b60405161025691906125c3565b60405180910390f35b61027960048036038101906102749190612a7a565b610880565b6040516102869190612b8f565b60405180910390f35b6102a960048036038101906102a49190612bb1565b6108ad565b6040516102b69190612d44565b60405180910390f35b6102d960048036038101906102d49190612d92565b610963565b005b6102f560048036038101906102f09190612a7a565b6109d1565b6040516103029190612e73565b60405180910390f35b61032560048036038101906103209190612f58565b6109e3565b005b610341600480360381019061033c9190612a19565b610ad6565b005b61035d60048036038101906103589190612a19565b610ba1565b60405161036a9190612a5f565b60405180910390f35b61037b610bf1565b005b61039760048036038101906103929190613110565b610c05565b005b6103b360048036038101906103ae919061316c565b610c83565b005b6103bd610c99565b6040516103ca9190612ab6565b60405180910390f35b6103ed60048036038101906103e891906131c8565b610cc2565b005b61040960048036038101906104049190612a19565b610da5565b60405161041691906132b3565b60405180910390f35b610439600480360381019061043491906132d5565b610df5565b005b61045560048036038101906104509190612672565b610eaf565b005b610471600480360381019061046c919061337c565b611066565b005b61048d60048036038101906104889190612a19565b611088565b005b6000634939914560e01b7bffffffffffffffffffffffffffffffffffffffffffffffffffffffff1916827bffffffffffffffffffffffffffffffffffffffffffffffffffffffff191614806104e957506104e882611264565b5b9050919050565b60006104fb826107af565b905060006105076112c5565b90508073ffffffffffffffffffffffffffffffffffffffff168273ffffffffffffffffffffffffffffffffffffffff161461057d578183826040517f5b271ea2000000000000000000000000000000000000000000000000000000008152600401610574939291906133e7565b60405180910390fd5b600073ffffffffffffffffffffffffffffffffffffffff168473ffffffffffffffffffffffffffffffffffffffff1614156105e4576040517f9577b8b300000000000000000000000000000000000000000000000000000000815260040160405180910390fd5b8373ffffffffffffffffffffffffffffffffffffffff168273ffffffffffffffffffffffffffffffffffffffff16141561061f57505061062d565b61062a8483856112cd565b50505b5050565b610639611353565b805182511461067d576040517f08c379a0000000000000000000000000000000000000000000000000000000008152600401610674906134a1565b60405180910390fd5b60005b82518110156106d7576106c783828151811061069f5761069e6134c1565b5b60200260200101518383815181106106ba576106b96134c1565b5b60200260200101516113ca565b6106d081611492565b9050610680565b505050565b6001600760003373ffffffffffffffffffffffffffffffffffffffff1673ffffffffffffffffffffffffffffffffffffffff16815260200190815260200160002054101561075f576040517f08c379a00000000000000000000000000000000000000000000000000000000081526004016107569061353c565b60405180910390fd5b600760008273ffffffffffffffffffffffffffffffffffffffff1673ffffffffffffffffffffffffffffffffffffffff1681526020019081526020016000206000905550565b6000600254905090565b6000806003600084815260200190815260200160002060009054906101000a900473ffffffffffffffffffffffffffffffffffffffff169050600073ffffffffffffffffffffffffffffffffffffffff168173ffffffffffffffffffffffffffffffffffffffff16141561085a57826040517fae8f9a36000000000000000000000000000000000000000000000000000000008152600401610851919061355c565b60405180910390fd5b80915050919050565b600061086e8261149f565b61087883836114ec565b905092915050565b606061088b8261149f565b6108a66005600084815260200190815260200160002061155e565b9050919050565b6060815167ffffffffffffffff8111156108ca576108c96126c8565b5b6040519080825280602002602001820160405280156108fd57816020015b60608152602001906001900390816108e85790505b50905060005b825181101561095d5761092f838281518110610922576109216134c1565b5b602002602001015161157f565b828281518110610942576109416134c1565b5b602002602001018190525061095681611492565b9050610903565b50919050565b600061096d6112c5565b905061097981856114ec565b6109bc5783816040517f1294d2a90000000000000000000000000000000000000000000000000000000081526004016109b3929190613577565b60405180910390fd5b6109c98686868686611624565b505050505050565b60606109dc8261157f565b9050919050565b835185511415806109f657508251855114155b80610a0357508051855114155b15610a3a576040517f93a8311900000000000000000000000000000000000000000000000000000000815260040160405180910390fd5b60005b8551811015610ace57610abb868281518110610a5c57610a5b6134c1565b5b6020026020010151868381518110610a7757610a766134c1565b5b6020026020010151868481518110610a9257610a916134c1565b5b602002602001015186868681518110610aae57610aad6134c1565b5b6020026020010151610963565b8080610ac6906135cf565b915050610a3d565b505050505050565b6001600760003373ffffffffffffffffffffffffffffffffffffffff1673ffffffffffffffffffffffffffffffffffffffff168152602001908152602001600020541015610b59576040517f08c379a0000000000000000000000000000000000000000000000000000000008152600401610b509061353c565b60405180910390fd5b6001600760008373ffffffffffffffffffffffffffffffffffffffff1673ffffffffffffffffffffffffffffffffffffffff1681526020019081526020016000208190555050565b6000610bea600460008473ffffffffffffffffffffffffffffffffffffffff1673ffffffffffffffffffffffffffffffffffffffff1681526020019081526020016000206118af565b9050919050565b610bf9611353565b610c03600061110c565b565b6009600083815260200190815260200160002060405180604001604052808381526020014281525090806001815401808255809150506001900390600052602060002090600202016000909190919091506000820151816000019080519060200190610c729291906123a6565b506020820151816001015550505050565b610c8b611353565b610c9582826113ca565b5050565b60008060009054906101000a900473ffffffffffffffffffffffffffffffffffffffff16905090565b6001600760003373ffffffffffffffffffffffffffffffffffffffff1673ffffffffffffffffffffffffffffffffffffffff168152602001908152602001600020541015610d45576040517f08c379a0000000000000000000000000000000000000000000000000000000008152600401610d3c9061353c565b60405180910390fd5b60088181548110610d5957610d586134c1565b5b906000526020600020906004020160008082016000610d78919061242c565b600182016000610d88919061242c565b600282016000610d98919061242c565b6003820160009055505050565b6060610dee600460008473ffffffffffffffffffffffffffffffffffffffff1673ffffffffffffffffffffffffffffffffffffffff1681526020019081526020016000206118c4565b9050919050565b6000604051806080016040528085815260200184815260200183815260200142815250905060088190806001815401808255809150506001900390600052602060002090600402016000909190919091506000820151816000019080519060200190610e629291906123a6565b506020820151816001019080519060200190610e7f9291906123a6565b506040820151816002019080519060200190610e9c9291906123a6565b5060608201518160030155505050505050565b6000610eba826107af565b90506000610ec66112c5565b90508073ffffffffffffffffffffffffffffffffffffffff168273ffffffffffffffffffffffffffffffffffffffff1614610f3c578183826040517f5b271ea2000000000000000000000000000000000000000000000000000000008152600401610f33939291906133e7565b60405180910390fd5b600073ffffffffffffffffffffffffffffffffffffffff168473ffffffffffffffffffffffffffffffffffffffff161415610fa3576040517f9577b8b300000000000000000000000000000000000000000000000000000000815260040160405180910390fd5b8373ffffffffffffffffffffffffffffffffffffffff168273ffffffffffffffffffffffffffffffffffffffff161415610fde575050611062565b61100384600560008681526020019081526020016000206118d990919063ffffffff16565b50828273ffffffffffffffffffffffffffffffffffffffff168573ffffffffffffffffffffffffffffffffffffffff167f34b797fc5a526f7bf1d2b5de25f6564fd85ae364e3ee939aee7c1ac27871a98860405160405180910390a450505b5050565b600060065460001b905060008290506110828483600184611909565b50505050565b611090611353565b600073ffffffffffffffffffffffffffffffffffffffff168173ffffffffffffffffffffffffffffffffffffffff161415611100576040517f08c379a00000000000000000000000000000000000000000000000000000000081526004016110f79061368a565b60405180910390fd5b6111098161110c565b50565b611114610c99565b73ffffffffffffffffffffffffffffffffffffffff168173ffffffffffffffffffffffffffffffffffffffff16146112085760008060009054906101000a900473ffffffffffffffffffffffffffffffffffffffff169050816000806101000a81548173ffffffffffffffffffffffffffffffffffffffff021916908373ffffffffffffffffffffffffffffffffffffffff1602179055508173ffffffffffffffffffffffffffffffffffffffff168173ffffffffffffffffffffffffffffffffffffffff167f8be0079c531659141344cd1fd0a4f28419497f9722a3daafe3b4186f6b6457e060405160405180910390a3505b50565b8060016000848152602001908152602001600020908051906020019061123292919061246c565b50817fcdf4e344c0d23d4cdd0474039d176c55b19d531070dbe17856bfb993a5b5720b60405160405180910390a25050565b600063714df77c60e01b7bffffffffffffffffffffffffffffffffffffffffffffffffffffffff1916827bffffffffffffffffffffffffffffffffffffffffffffffffffffffff191614806112be57506112bd82611af7565b5b9050919050565b600033905090565b6112f28360056000848152602001908152602001600020611b6190919063ffffffff16565b50808273ffffffffffffffffffffffffffffffffffffffff168473ffffffffffffffffffffffffffffffffffffffff167f17d5389f6ab6adb2647dfa0aa365c323d37adacc30b33a65310b6158ce1373d560405160405180910390a4505050565b3373ffffffffffffffffffffffffffffffffffffffff16611372610c99565b73ffffffffffffffffffffffffffffffffffffffff16146113c8576040517f08c379a00000000000000000000000000000000000000000000000000000000081526004016113bf906136f6565b60405180910390fd5b565b7fdeba1e292f8ba88238e10ab3c7f88bd4be4fac56cad5194b6ecceaf653468af160001b821415611427576040517f85c169bd00000000000000000000000000000000000000000000000000000000815260040160405180910390fd5b7f2f0a68ab07768e01943a599e73362a0e17a63a72e94dd2e384d2c1d4db93275660001b821415611484576040517f76755b3800000000000000000000000000000000000000000000000000000000815260040160405180910390fd5b61148e828261120b565b5050565b6000600182019050919050565b6114a881611b91565b6114e957806040517fae8f9a360000000000000000000000000000000000000000000000000000000081526004016114e0919061355c565b60405180910390fd5b50565b6000806114f8836107af565b90508073ffffffffffffffffffffffffffffffffffffffff168473ffffffffffffffffffffffffffffffffffffffff16148061155557506115548460056000868152602001908152602001600020611bfd90919063ffffffff16565b5b91505092915050565b6060600061156e83600001611c2d565b905060608190508092505050919050565b606060016000838152602001908152602001600020805461159f90613745565b80601f01602080910402602001604051908101604052809291908181526020018280546115cb90613745565b80156116185780601f106115ed57610100808354040283529160200191611618565b820191906000526020600020905b8154815290600101906020018083116115fb57829003601f168201915b50505050509050919050565b600061162f846107af565b90508573ffffffffffffffffffffffffffffffffffffffff168173ffffffffffffffffffffffffffffffffffffffff16146116a5578084876040517f5b271ea200000000000000000000000000000000000000000000000000000000815260040161169c939291906133e7565b60405180910390fd5b600073ffffffffffffffffffffffffffffffffffffffff168573ffffffffffffffffffffffffffffffffffffffff16141561170c576040517f24ecef4d00000000000000000000000000000000000000000000000000000000815260040160405180910390fd5b60006117166112c5565b9050611723878787611c89565b61172d8786611d2e565b61177e85600460008a73ffffffffffffffffffffffffffffffffffffffff1673ffffffffffffffffffffffffffffffffffffffff168152602001908152602001600020611d9b90919063ffffffff16565b506117d085600460008973ffffffffffffffffffffffffffffffffffffffff1673ffffffffffffffffffffffffffffffffffffffff168152602001908152602001600020611db290919063ffffffff16565b50856003600087815260200190815260200160002060006101000a81548173ffffffffffffffffffffffffffffffffffffffff021916908373ffffffffffffffffffffffffffffffffffffffff160217905550848673ffffffffffffffffffffffffffffffffffffffff168873ffffffffffffffffffffffffffffffffffffffff167fb333c813a7426a7a11e2b190cad52c44119421594b47f6f32ace6d8c7207b2bf84888860405161188593929190613777565b60405180910390a461189987878786611dc9565b6118a68787878787611ec7565b50505050505050565b60006118bd82600001612069565b9050919050565b60606118d282600001611c2d565b9050919050565b6000611901836000018373ffffffffffffffffffffffffffffffffffffffff1660001b61207a565b905092915050565b600073ffffffffffffffffffffffffffffffffffffffff168473ffffffffffffffffffffffffffffffffffffffff161415611970576040517f24ecef4d00000000000000000000000000000000000000000000000000000000815260040160405180910390fd5b61197983611b91565b156119bb57826040517f34c7b5110000000000000000000000000000000000000000000000000000000081526004016119b2919061355c565b60405180910390fd5b60006119c56112c5565b90506119d360008686611c89565b611a2484600460008873ffffffffffffffffffffffffffffffffffffffff1673ffffffffffffffffffffffffffffffffffffffff168152602001908152602001600020611db290919063ffffffff16565b50846003600086815260200190815260200160002060006101000a81548173ffffffffffffffffffffffffffffffffffffffff021916908373ffffffffffffffffffffffffffffffffffffffff160217905550838573ffffffffffffffffffffffffffffffffffffffff16600073ffffffffffffffffffffffffffffffffffffffff167fb333c813a7426a7a11e2b190cad52c44119421594b47f6f32ace6d8c7207b2bf848787604051611ada93929190613777565b60405180910390a4611af0600086868686611ec7565b5050505050565b60007f01ffc9a7000000000000000000000000000000000000000000000000000000007bffffffffffffffffffffffffffffffffffffffffffffffffffffffff1916827bffffffffffffffffffffffffffffffffffffffffffffffffffffffff1916149050919050565b6000611b89836000018373ffffffffffffffffffffffffffffffffffffffff1660001b6120ea565b905092915050565b60008073ffffffffffffffffffffffffffffffffffffffff166003600084815260200190815260200160002060009054906101000a900473ffffffffffffffffffffffffffffffffffffffff1673ffffffffffffffffffffffffffffffffffffffff1614159050919050565b6000611c25836000018373ffffffffffffffffffffffffffffffffffffffff1660001b6121fe565b905092915050565b606081600001805480602002602001604051908101604052809291908181526020018280548015611c7d57602002820191906000526020600020905b815481526020019060010190808311611c69575b50505050509050919050565b600073ffffffffffffffffffffffffffffffffffffffff168373ffffffffffffffffffffffffffffffffffffffff161415611cd957600160026000828254611cd191906137b5565b925050819055505b600073ffffffffffffffffffffffffffffffffffffffff168273ffffffffffffffffffffffffffffffffffffffff161415611d2957600160026000828254611d21919061380b565b925050819055505b505050565b60006005600083815260200190815260200160002090506000611d5082612221565b905060005b81811015611d94576000611d7360008561223690919063ffffffff16565b9050611d808187876112cd565b508080611d8c906135cf565b915050611d55565b5050505050565b6000611daa83600001836120ea565b905092915050565b6000611dc1836000018361207a565b905092915050565b611dda84636bb56a1460e01b612250565b15611ec157600084848484604051602001611df894939291906138e4565b60405160208183030381529060405290508473ffffffffffffffffffffffffffffffffffffffff16636bb56a147f3724c94f0815e936299cca424da4140752198e0beb7931a6e0925d11bc97544c60001b836040518363ffffffff1660e01b8152600401611e6792919061392e565b600060405180830381600087803b158015611e8157600080fd5b505af1158015611e95573d6000803e3d6000fd5b505050506040513d6000823e3d601f19601f82011682018060405250810190611ebe91906139ce565b50505b50505050565b611ed884636bb56a1460e01b612250565b15611fc357600085858584604051602001611ef694939291906138e4565b60405160208183030381529060405290508473ffffffffffffffffffffffffffffffffffffffff16636bb56a147fc7a120a42b6057a0cbed111fbbfbd52fcd96748c04394f77fc2c3adbe0391e0160001b836040518363ffffffff1660e01b8152600401611f6592919061392e565b600060405180830381600087803b158015611f7f57600080fd5b505af1158015611f93573d6000803e3d6000fd5b505050506040513d6000823e3d601f19601f82011682018060405250810190611fbc91906139ce565b5050612062565b816120615760008473ffffffffffffffffffffffffffffffffffffffff163b1461202457836040517f4349776d00000000000000000000000000000000000000000000000000000000815260040161201b9190612ab6565b60405180910390fd5b836040517f031731370000000000000000000000000000000000000000000000000000000081526004016120589190612ab6565b60405180910390fd5b5b5050505050565b600081600001805490509050919050565b600061208683836121fe565b6120df5782600001829080600181540180825580915050600190039060005260206000200160009091909190915055826000018054905083600101600084815260200190815260200160002081905550600190506120e4565b600090505b92915050565b600080836001016000848152602001908152602001600020549050600081146121f257600060018261211c919061380b565b9050600060018660000180549050612134919061380b565b90508181146121a3576000866000018281548110612155576121546134c1565b5b9060005260206000200154905080876000018481548110612179576121786134c1565b5b90600052602060002001819055508387600101600083815260200190815260200160002081905550505b856000018054806121b7576121b6613a17565b5b6001900381819060005260206000200160009055905585600101600086815260200190815260200160002060009055600193505050506121f8565b60009150505b92915050565b600080836001016000848152602001908152602001600020541415905092915050565b600061222f82600001612069565b9050919050565b6000612245836000018361237b565b60001c905092915050565b6000806301ffc9a760e01b8360405160240161226c9190613a55565b604051602081830303815290604052907bffffffffffffffffffffffffffffffffffffffffffffffffffffffff19166020820180517bffffffffffffffffffffffffffffffffffffffffffffffffffffffff838183161783525050505090506000808573ffffffffffffffffffffffffffffffffffffffff16617530846040516122f69190613a70565b6000604051808303818686fa925050503d8060008114612332576040519150601f19603f3d011682016040523d82523d6000602084013e612337565b606091505b50915091506020815110156123525760009350505050612375565b81801561236f57508080602001905181019061236e9190613a9c565b5b93505050505b92915050565b6000826000018281548110612393576123926134c1565b5b9060005260206000200154905092915050565b8280546123b290613745565b90600052602060002090601f0160209004810192826123d4576000855561241b565b82601f106123ed57805160ff191683800117855561241b565b8280016001018555821561241b579182015b8281111561241a5782518255916020019190600101906123ff565b5b50905061242891906124f2565b5090565b50805461243890613745565b6000825580601f1061244a5750612469565b601f01602090049060005260206000209081019061246891906124f2565b5b50565b82805461247890613745565b90600052602060002090601f01602090048101928261249a57600085556124e1565b82601f106124b357805160ff19168380011785556124e1565b828001600101855582156124e1579182015b828111156124e05782518255916020019190600101906124c5565b5b5090506124ee91906124f2565b5090565b5b8082111561250b5760008160009055506001016124f3565b5090565b6000604051905090565b600080fd5b600080fd5b60007fffffffff0000000000000000000000000000000000000000000000000000000082169050919050565b61255881612523565b811461256357600080fd5b50565b6000813590506125758161254f565b92915050565b60006020828403121561259157612590612519565b5b600061259f84828501612566565b91505092915050565b60008115159050919050565b6125bd816125a8565b82525050565b60006020820190506125d860008301846125b4565b92915050565b600073ffffffffffffffffffffffffffffffffffffffff82169050919050565b6000612609826125de565b9050919050565b612619816125fe565b811461262457600080fd5b50565b60008135905061263681612610565b92915050565b6000819050919050565b61264f8161263c565b811461265a57600080fd5b50565b60008135905061266c81612646565b92915050565b6000806040838503121561268957612688612519565b5b600061269785828601612627565b92505060206126a88582860161265d565b9150509250929050565b600080fd5b6000601f19601f8301169050919050565b7f4e487b7100000000000000000000000000000000000000000000000000000000600052604160045260246000fd5b612700826126b7565b810181811067ffffffffffffffff8211171561271f5761271e6126c8565b5b80604052505050565b600061273261250f565b905061273e82826126f7565b919050565b600067ffffffffffffffff82111561275e5761275d6126c8565b5b602082029050602081019050919050565b600080fd5b600061278761278284612743565b612728565b905080838252602082019050602084028301858111156127aa576127a961276f565b5b835b818110156127d357806127bf888261265d565b8452602084019350506020810190506127ac565b5050509392505050565b600082601f8301126127f2576127f16126b2565b5b8135612802848260208601612774565b91505092915050565b600067ffffffffffffffff821115612826576128256126c8565b5b602082029050602081019050919050565b600080fd5b600067ffffffffffffffff821115612857576128566126c8565b5b612860826126b7565b9050602081019050919050565b82818337600083830152505050565b600061288f61288a8461283c565b612728565b9050828152602081018484840111156128ab576128aa612837565b5b6128b684828561286d565b509392505050565b600082601f8301126128d3576128d26126b2565b5b81356128e384826020860161287c565b91505092915050565b60006128ff6128fa8461280b565b612728565b905080838252602082019050602084028301858111156129225761292161276f565b5b835b8181101561296957803567ffffffffffffffff811115612947576129466126b2565b5b80860161295489826128be565b85526020850194505050602081019050612924565b5050509392505050565b600082601f830112612988576129876126b2565b5b81356129988482602086016128ec565b91505092915050565b600080604083850312156129b8576129b7612519565b5b600083013567ffffffffffffffff8111156129d6576129d561251e565b5b6129e2858286016127dd565b925050602083013567ffffffffffffffff811115612a0357612a0261251e565b5b612a0f85828601612973565b9150509250929050565b600060208284031215612a2f57612a2e612519565b5b6000612a3d84828501612627565b91505092915050565b6000819050919050565b612a5981612a46565b82525050565b6000602082019050612a746000830184612a50565b92915050565b600060208284031215612a9057612a8f612519565b5b6000612a9e8482850161265d565b91505092915050565b612ab0816125fe565b82525050565b6000602082019050612acb6000830184612aa7565b92915050565b600081519050919050565b600082825260208201905092915050565b6000819050602082019050919050565b612b06816125fe565b82525050565b6000612b188383612afd565b60208301905092915050565b6000602082019050919050565b6000612b3c82612ad1565b612b468185612adc565b9350612b5183612aed565b8060005b83811015612b82578151612b698882612b0c565b9750612b7483612b24565b925050600181019050612b55565b5085935050505092915050565b60006020820190508181036000830152612ba98184612b31565b905092915050565b600060208284031215612bc757612bc6612519565b5b600082013567ffffffffffffffff811115612be557612be461251e565b5b612bf1848285016127dd565b91505092915050565b600081519050919050565b600082825260208201905092915050565b6000819050602082019050919050565b600081519050919050565b600082825260208201905092915050565b60005b83811015612c60578082015181840152602081019050612c45565b83811115612c6f576000848401525b50505050565b6000612c8082612c26565b612c8a8185612c31565b9350612c9a818560208601612c42565b612ca3816126b7565b840191505092915050565b6000612cba8383612c75565b905092915050565b6000602082019050919050565b6000612cda82612bfa565b612ce48185612c05565b935083602082028501612cf685612c16565b8060005b85811015612d325784840389528151612d138582612cae565b9450612d1e83612cc2565b925060208a01995050600181019050612cfa565b50829750879550505050505092915050565b60006020820190508181036000830152612d5e8184612ccf565b905092915050565b612d6f816125a8565b8114612d7a57600080fd5b50565b600081359050612d8c81612d66565b92915050565b600080600080600060a08688031215612dae57612dad612519565b5b6000612dbc88828901612627565b9550506020612dcd88828901612627565b9450506040612dde8882890161265d565b9350506060612def88828901612d7d565b925050608086013567ffffffffffffffff811115612e1057612e0f61251e565b5b612e1c888289016128be565b9150509295509295909350565b600082825260208201905092915050565b6000612e4582612c26565b612e4f8185612e29565b9350612e5f818560208601612c42565b612e68816126b7565b840191505092915050565b60006020820190508181036000830152612e8d8184612e3a565b905092915050565b600067ffffffffffffffff821115612eb057612eaf6126c8565b5b602082029050602081019050919050565b6000612ed4612ecf84612e95565b612728565b90508083825260208201905060208402830185811115612ef757612ef661276f565b5b835b81811015612f205780612f0c8882612627565b845260208401935050602081019050612ef9565b5050509392505050565b600082601f830112612f3f57612f3e6126b2565b5b8135612f4f848260208601612ec1565b91505092915050565b600080600080600060a08688031215612f7457612f73612519565b5b600086013567ffffffffffffffff811115612f9257612f9161251e565b5b612f9e88828901612f2a565b955050602086013567ffffffffffffffff811115612fbf57612fbe61251e565b5b612fcb88828901612f2a565b945050604086013567ffffffffffffffff811115612fec57612feb61251e565b5b612ff8888289016127dd565b935050606061300988828901612d7d565b925050608086013567ffffffffffffffff81111561302a5761302961251e565b5b61303688828901612973565b9150509295509295909350565b61304c81612a46565b811461305757600080fd5b50565b60008135905061306981613043565b92915050565b600067ffffffffffffffff82111561308a576130896126c8565b5b613093826126b7565b9050602081019050919050565b60006130b36130ae8461306f565b612728565b9050828152602081018484840111156130cf576130ce612837565b5b6130da84828561286d565b509392505050565b600082601f8301126130f7576130f66126b2565b5b81356131078482602086016130a0565b91505092915050565b6000806040838503121561312757613126612519565b5b60006131358582860161305a565b925050602083013567ffffffffffffffff8111156131565761315561251e565b5b613162858286016130e2565b9150509250929050565b6000806040838503121561318357613182612519565b5b60006131918582860161265d565b925050602083013567ffffffffffffffff8111156131b2576131b161251e565b5b6131be858286016128be565b9150509250929050565b6000602082840312156131de576131dd612519565b5b60006131ec8482850161305a565b91505092915050565b600081519050919050565b600082825260208201905092915050565b6000819050602082019050919050565b61322a8161263c565b82525050565b600061323c8383613221565b60208301905092915050565b6000602082019050919050565b6000613260826131f5565b61326a8185613200565b935061327583613211565b8060005b838110156132a657815161328d8882613230565b975061329883613248565b925050600181019050613279565b5085935050505092915050565b600060208201905081810360008301526132cd8184613255565b905092915050565b6000806000606084860312156132ee576132ed612519565b5b600084013567ffffffffffffffff81111561330c5761330b61251e565b5b613318868287016130e2565b935050602084013567ffffffffffffffff8111156133395761333861251e565b5b613345868287016130e2565b925050604084013567ffffffffffffffff8111156133665761336561251e565b5b613372868287016130e2565b9150509250925092565b6000806040838503121561339357613392612519565b5b60006133a185828601612627565b925050602083013567ffffffffffffffff8111156133c2576133c161251e565b5b6133ce858286016130e2565b9150509250929050565b6133e18161263c565b82525050565b60006060820190506133fc6000830186612aa7565b61340960208301856133d8565b6134166040830184612aa7565b949350505050565b600082825260208201905092915050565b7f4b657973206c656e677468206e6f7420657175616c20746f2076616c7565732060008201527f6c656e6774680000000000000000000000000000000000000000000000000000602082015250565b600061348b60268361341e565b91506134968261342f565b604082019050919050565b600060208201905081810360008301526134ba8161347e565b9050919050565b7f4e487b7100000000000000000000000000000000000000000000000000000000600052603260045260246000fd5b7f6e6f742061646d696e0000000000000000000000000000000000000000000000600082015250565b600061352660098361341e565b9150613531826134f0565b602082019050919050565b6000602082019050818103600083015261355581613519565b9050919050565b600060208201905061357160008301846133d8565b92915050565b600060408201905061358c60008301856133d8565b6135996020830184612aa7565b9392505050565b7f4e487b7100000000000000000000000000000000000000000000000000000000600052601160045260246000fd5b60006135da82612a46565b91507fffffffffffffffffffffffffffffffffffffffffffffffffffffffffffffffff82141561360d5761360c6135a0565b5b600182019050919050565b7f4f776e61626c653a206e6577206f776e657220697320746865207a65726f206160008201527f6464726573730000000000000000000000000000000000000000000000000000602082015250565b600061367460268361341e565b915061367f82613618565b604082019050919050565b600060208201905081810360008301526136a381613667565b9050919050565b7f4f776e61626c653a2063616c6c6572206973206e6f7420746865206f776e6572600082015250565b60006136e060208361341e565b91506136eb826136aa565b602082019050919050565b6000602082019050818103600083015261370f816136d3565b9050919050565b7f4e487b7100000000000000000000000000000000000000000000000000000000600052602260045260246000fd5b6000600282049050600182168061375d57607f821691505b6020821081141561377157613770613716565b5b50919050565b600060608201905061378c6000830186612aa7565b61379960208301856125b4565b81810360408301526137ab8184612e3a565b9050949350505050565b60006137c082612a46565b91506137cb83612a46565b9250827fffffffffffffffffffffffffffffffffffffffffffffffffffffffffffffffff03821115613800576137ff6135a0565b5b828201905092915050565b600061381682612a46565b915061382183612a46565b925082821015613834576138336135a0565b5b828203905092915050565b60008160601b9050919050565b60006138578261383f565b9050919050565b60006138698261384c565b9050919050565b61388161387c826125fe565b61385e565b82525050565b6000819050919050565b6138a261389d8261263c565b613887565b82525050565b600081905092915050565b60006138be82612c26565b6138c881856138a8565b93506138d8818560208601612c42565b80840191505092915050565b60006138f08287613870565b6014820191506139008286613870565b6014820191506139108285613891565b60208201915061392082846138b3565b915081905095945050505050565b600060408201905061394360008301856133d8565b81810360208301526139558184612e3a565b90509392505050565b600061397161396c8461283c565b612728565b90508281526020810184848401111561398d5761398c612837565b5b613998848285612c42565b509392505050565b600082601f8301126139b5576139b46126b2565b5b81516139c584826020860161395e565b91505092915050565b6000602082840312156139e4576139e3612519565b5b600082015167ffffffffffffffff811115613a0257613a0161251e565b5b613a0e848285016139a0565b91505092915050565b7f4e487b7100000000000000000000000000000000000000000000000000000000600052603160045260246000fd5b613a4f81612523565b82525050565b6000602082019050613a6a6000830184613a46565b92915050565b6000613a7c82846138b3565b915081905092915050565b600081519050613a9681612d66565b92915050565b600060208284031215613ab257613ab1612519565b5b6000613ac084828501613a87565b9150509291505056fea26469706673582212201088050d0873a91a3e40aa985ab4459f5fe401ba0a18aee145d191bb14c80da364736f6c63430008090033",
  "linkReferences": {},
  "deployedLinkReferences": {}
}