{
  "_format": "hh-sol-artifact-1",
  "contractName": "LSP8Marketplace",
  "sourceName": "contracts/LSP8Marketplace.sol",
  "abi": [
    {
      "anonymous": false,
      "inputs": [
        {
          "indexed": false,
          "internalType": "string",
          "name": "func",
          "type": "string"
        },
        {
          "indexed": false,
          "internalType": "address",
          "name": "sender",
          "type": "address"
        },
        {
          "indexed": false,
          "internalType": "uint256",
          "name": "value",
          "type": "uint256"
        },
        {
          "indexed": false,
          "internalType": "bytes",
          "name": "data",
          "type": "bytes"
        }
      ],
      "name": "Log",
      "type": "event"
    },
    {
      "stateMutability": "payable",
      "type": "fallback"
    },
    {
      "inputs": [
        {
          "internalType": "address",
          "name": "_LSP8Address",
          "type": "address"
        },
        {
          "internalType": "bytes32",
          "name": "_tokenId",
          "type": "bytes32"
        }
      ],
      "name": "_getMinter",
      "outputs": [
        {
          "internalType": "address",
          "name": "",
          "type": "address"
        }
      ],
      "stateMutability": "pure",
      "type": "function"
    },
    {
      "inputs": [
        {
          "internalType": "address",
          "name": "LSP8Address",
          "type": "address"
        },
        {
          "internalType": "bytes32",
          "name": "tokenId",
          "type": "bytes32"
        },
        {
          "internalType": "address",
          "name": "LSP7Address",
          "type": "address"
        },
        {
          "internalType": "address",
          "name": "offerCreator",
          "type": "address"
        }
      ],
      "name": "_returnLSP7OfferAmount",
      "outputs": [
        {
          "internalType": "uint256",
          "name": "",
          "type": "uint256"
        }
      ],
      "stateMutability": "view",
      "type": "function"
    },
    {
      "inputs": [
        {
          "internalType": "address",
          "name": "LSP8Address",
          "type": "address"
        },
        {
          "internalType": "bytes32",
          "name": "tokenId",
          "type": "bytes32"
        }
      ],
      "name": "_returnLSP7OfferCreators",
      "outputs": [
        {
          "internalType": "address[]",
          "name": "",
          "type": "address[]"
        }
      ],
      "stateMutability": "view",
      "type": "function"
    },
    {
      "inputs": [
        {
          "internalType": "address",
          "name": "LSP8Address",
          "type": "address"
        },
        {
          "internalType": "bytes32",
          "name": "tokenId",
          "type": "bytes32"
        },
        {
          "internalType": "address",
          "name": "offersCreator",
          "type": "address"
        }
      ],
      "name": "_returnLSP7OffersByCreators",
      "outputs": [
        {
          "internalType": "address[]",
          "name": "",
          "type": "address[]"
        },
        {
          "internalType": "uint256[]",
          "name": "",
          "type": "uint256[]"
        }
      ],
      "stateMutability": "view",
      "type": "function"
    },
    {
      "inputs": [
        {
          "internalType": "address",
          "name": "LSP8Address",
          "type": "address"
        },
        {
          "internalType": "bytes32",
          "name": "tokenId",
          "type": "bytes32"
        }
      ],
      "name": "_returnLSP7Prices",
      "outputs": [
        {
          "internalType": "address[]",
          "name": "",
          "type": "address[]"
        },
        {
          "internalType": "uint256[]",
          "name": "",
          "type": "uint256[]"
        }
      ],
      "stateMutability": "view",
      "type": "function"
    },
    {
      "inputs": [
        {
          "internalType": "address",
          "name": "LSP8Address",
          "type": "address"
        },
        {
          "internalType": "bytes32",
          "name": "tokenId",
          "type": "bytes32"
        }
      ],
      "name": "_returnLSP8OfferAddresses",
      "outputs": [
        {
          "internalType": "address[]",
          "name": "",
          "type": "address[]"
        }
      ],
      "stateMutability": "view",
      "type": "function"
    },
    {
      "inputs": [
        {
          "internalType": "address",
          "name": "LSP8Address",
          "type": "address"
        },
        {
          "internalType": "bytes32",
          "name": "tokenId",
          "type": "bytes32"
        },
        {
          "internalType": "address",
          "name": "offerLSP8Address",
          "type": "address"
        }
      ],
      "name": "_returnLSP8OfferTokenIdsByAddress",
      "outputs": [
        {
          "internalType": "bytes32[]",
          "name": "",
          "type": "bytes32[]"
        }
      ],
      "stateMutability": "view",
      "type": "function"
    },
    {
      "inputs": [
        {
          "internalType": "address",
          "name": "LSP8Address",
          "type": "address"
        },
        {
          "internalType": "bytes32",
          "name": "tokenId",
          "type": "bytes32"
        }
      ],
      "name": "_returnLYXOffers",
      "outputs": [
        {
          "internalType": "address[]",
          "name": "",
          "type": "address[]"
        },
        {
          "internalType": "uint256[]",
          "name": "",
          "type": "uint256[]"
        }
      ],
      "stateMutability": "view",
      "type": "function"
    },
    {
      "inputs": [
        {
          "internalType": "address",
          "name": "LSP8Address",
          "type": "address"
        },
        {
          "internalType": "bytes32",
          "name": "tokenId",
          "type": "bytes32"
        }
      ],
      "name": "_returnLYXPrice",
      "outputs": [
        {
          "internalType": "uint256",
          "name": "",
          "type": "uint256"
        }
      ],
      "stateMutability": "view",
      "type": "function"
    },
    {
      "inputs": [
        {
          "internalType": "address",
          "name": "LSP8Address",
          "type": "address"
        },
        {
          "internalType": "bytes32",
          "name": "tokenId",
          "type": "bytes32"
        }
      ],
      "name": "_returnOfferAlowance",
      "outputs": [
        {
          "internalType": "bool[3]",
          "name": "",
          "type": "bool[3]"
        }
      ],
      "stateMutability": "view",
      "type": "function"
    },
    {
      "inputs": [
        {
          "internalType": "address",
          "name": "LSP8Address",
          "type": "address"
        },
        {
          "internalType": "bytes32",
          "name": "tokenId",
          "type": "bytes32"
        }
      ],
      "name": "buyLSP8WithLYX",
      "outputs": [],
      "stateMutability": "payable",
      "type": "function"
    },
    {
      "inputs": [
        {
          "internalType": "address",
          "name": "LSP8Address",
          "type": "address"
        },
        {
          "internalType": "bytes32",
          "name": "tokenId",
          "type": "bytes32"
        },
        {
          "internalType": "uint256",
          "name": "LYXAmount",
          "type": "uint256"
        }
      ],
      "name": "changeLYXPrice",
      "outputs": [],
      "stateMutability": "nonpayable",
      "type": "function"
    },
    {
      "inputs": [
        {
          "internalType": "uint256",
          "name": "Id",
          "type": "uint256"
        }
      ],
      "name": "getStatus",
      "outputs": [
        {
          "internalType": "enum LSP8MarketplaceEscrow.status",
          "name": "",
          "type": "uint8"
        }
      ],
      "stateMutability": "view",
      "type": "function"
    },
    {
      "inputs": [
        {
          "internalType": "address",
          "name": "LSP8Address",
          "type": "address"
        },
        {
          "internalType": "bytes32",
          "name": "tokenId",
          "type": "bytes32"
        },
        {
          "internalType": "uint256",
          "name": "LYXAmount",
          "type": "uint256"
        },
        {
          "internalType": "bool[3]",
          "name": "allowedOffers",
          "type": "bool[3]"
        }
      ],
      "name": "putLSP8OnSale",
      "outputs": [],
      "stateMutability": "nonpayable",
      "type": "function"
    },
    {
      "inputs": [
        {
          "internalType": "address",
          "name": "LSP8Address",
          "type": "address"
        },
        {
          "internalType": "bytes32",
          "name": "tokenId",
          "type": "bytes32"
        }
      ],
      "name": "removeLSP8FromSale",
      "outputs": [],
      "stateMutability": "nonpayable",
      "type": "function"
    },
    {
      "inputs": [
        {
          "internalType": "uint256",
          "name": "Id",
          "type": "uint256"
        }
      ],
      "name": "reportConfirm",
      "outputs": [],
      "stateMutability": "nonpayable",
      "type": "function"
    },
    {
      "inputs": [
        {
          "internalType": "uint256",
          "name": "Id",
          "type": "uint256"
        }
      ],
      "name": "reportLost",
      "outputs": [],
      "stateMutability": "nonpayable",
      "type": "function"
    },
    {
      "stateMutability": "payable",
      "type": "receive"
    }
  ],
  "bytecode": "0x608060405234801561001057600080fd5b50614120806100206000396000f3fe6080604052600436106101025760003560e01c8063987e09cd11610095578063cf811d6611610064578063cf811d6614610400578063e568dd731461043d578063eb79bd471461047b578063f9488bcf146104b8578063f9e33603146104f557610153565b8063987e09cd1461031f578063bd2954401461035d578063c5ab12c41461039a578063c7719511146103d757610153565b80635c622a0e116100d15780635c622a0e146102605780636b1c6fe11461029d57806382c9a551146102c657806382d1a9a6146102e257610153565b806307610107146101935780630a84a4fd146101d15780631b898e8d146101fa578063392728ce1461022357610153565b36610153577ff7f75251dee7d7fc22deac3247729ebe7c86541f35930bf10c2a4207479a3b6c3334604051806020016040528060008152506040516101499392919061304b565b60405180910390a1005b7ff7f75251dee7d7fc22deac3247729ebe7c86541f35930bf10c2a4207479a3b6c33346000366040516101899493929190613124565b60405180910390a1005b34801561019f57600080fd5b506101ba60048036038101906101b591906131e8565b61051e565b6040516101c89291906133b7565b60405180910390f35b3480156101dd57600080fd5b506101f860048036038101906101f3919061341a565b6106fa565b005b34801561020657600080fd5b50610221600480360381019061021c919061346d565b6108a1565b005b34801561022f57600080fd5b5061024a6004803603810190610245919061349a565b610d1c565b60405161025791906134da565b60405180910390f35b34801561026c57600080fd5b506102876004803603810190610282919061346d565b610d81565b6040516102949190613573565b60405180910390f35b3480156102a957600080fd5b506102c460048036038101906102bf919061349a565b610dae565b005b6102e060048036038101906102db919061349a565b610f5d565b005b3480156102ee57600080fd5b506103096004803603810190610304919061358e565b6111b1565b60405161031691906135f5565b60405180910390f35b34801561032b57600080fd5b506103466004803603810190610341919061349a565b61125f565b6040516103549291906133b7565b60405180910390f35b34801561036957600080fd5b50610384600480360381019061037f919061349a565b611395565b60405161039191906135f5565b60405180910390f35b3480156103a657600080fd5b506103c160048036038101906103bc91906131e8565b6113f3565b6040516103ce91906136ce565b60405180910390f35b3480156103e357600080fd5b506103fe60048036038101906103f9919061346d565b611530565b005b34801561040c57600080fd5b506104276004803603810190610422919061349a565b6119a9565b60405161043491906134da565b60405180910390f35b34801561044957600080fd5b50610464600480360381019061045f919061349a565b611a0e565b6040516104729291906133b7565b60405180910390f35b34801561048757600080fd5b506104a2600480360381019061049d919061349a565b611af5565b6040516104af91906136f0565b60405180910390f35b3480156104c457600080fd5b506104df60048036038101906104da919061349a565b611b02565b6040516104ec91906137c2565b60405180910390f35b34801561050157600080fd5b5061051c6004803603810190610517919061393f565b611bc3565b005b6060806000600260008773ffffffffffffffffffffffffffffffffffffffff1673ffffffffffffffffffffffffffffffffffffffff16815260200190815260200160002060008681526020019081526020016000209050606060005b6105c38360050160008873ffffffffffffffffffffffffffffffffffffffff1673ffffffffffffffffffffffffffffffffffffffff168152602001908152602001600020611d6d565b8110156106a15761066f610620828560050160008a73ffffffffffffffffffffffffffffffffffffffff1673ffffffffffffffffffffffffffffffffffffffff168152602001908152602001600020611d8290919063ffffffff16565b8460060160008973ffffffffffffffffffffffffffffffffffffffff1673ffffffffffffffffffffffffffffffffffffffff168152602001908152602001600020611d9c90919063ffffffff16565b828281518110610682576106816139a6565b5b602002602001018181525050808061069990613a04565b91505061057a565b506106eb8260050160008773ffffffffffffffffffffffffffffffffffffffff1673ffffffffffffffffffffffffffffffffffffffff168152602001908152602001600020611dcf565b81935093505050935093915050565b82823373ffffffffffffffffffffffffffffffffffffffff168273ffffffffffffffffffffffffffffffffffffffff1663217b2270836040518263ffffffff1660e01b815260040161074c9190613a5c565b60206040518083038186803b15801561076457600080fd5b505afa158015610778573d6000803e3d6000fd5b505050506040513d601f19601f8201168201806040525081019061079c9190613a8c565b73ffffffffffffffffffffffffffffffffffffffff16146107f2576040517f08c379a00000000000000000000000000000000000000000000000000000000081526004016107e990613b05565b60405180910390fd5b8484610844816000808573ffffffffffffffffffffffffffffffffffffffff1673ffffffffffffffffffffffffffffffffffffffff168152602001908152602001600020611df090919063ffffffff16565b610883576040517f08c379a000000000000000000000000000000000000000000000000000000000815260040161087a90613b71565b60405180910390fd5b61088d8787611e07565b610898878787611e62565b50505050505050565b6005600082815260200190815260200160002060040160009054906101000a900473ffffffffffffffffffffffffffffffffffffffff1673ffffffffffffffffffffffffffffffffffffffff163373ffffffffffffffffffffffffffffffffffffffff16148061097257506005600082815260200190815260200160002060030160009054906101000a900473ffffffffffffffffffffffffffffffffffffffff1673ffffffffffffffffffffffffffffffffffffffff163373ffffffffffffffffffffffffffffffffffffffff16145b6109b1576040517f08c379a00000000000000000000000000000000000000000000000000000000081526004016109a890613c03565b60405180910390fd5b600060038111156109c5576109c46134fc565b5b6005600083815260200190815260200160002060040160149054906101000a900460ff1660038111156109fb576109fa6134fc565b5b14610a3b576040517f08c379a0000000000000000000000000000000000000000000000000000000008152600401610a3290613c6f565b60405180910390fd5b6005600082815260200190815260200160002060040160009054906101000a900473ffffffffffffffffffffffffffffffffffffffff1673ffffffffffffffffffffffffffffffffffffffff163373ffffffffffffffffffffffffffffffffffffffff161415610baa5760016003811115610ab957610ab86134fc565b5b6005600083815260200190815260200160002060040160159054906101000a900460ff166003811115610aef57610aee6134fc565b5b505060016003811115610b0557610b046134fc565b5b6005600083815260200190815260200160002060040160169054906101000a900460ff166003811115610b3b57610b3a6134fc565b5b1415610b4f57610b4a81611ebf565b610ba9565b600380811115610b6257610b616134fc565b5b6005600083815260200190815260200160002060040160169054906101000a900460ff166003811115610b9857610b976134fc565b5b1415610ba857610ba78161214f565b5b5b5b6005600082815260200190815260200160002060030160009054906101000a900473ffffffffffffffffffffffffffffffffffffffff1673ffffffffffffffffffffffffffffffffffffffff163373ffffffffffffffffffffffffffffffffffffffff161415610d195760016003811115610c2857610c276134fc565b5b6005600083815260200190815260200160002060040160169054906101000a900460ff166003811115610c5e57610c5d6134fc565b5b505060016003811115610c7457610c736134fc565b5b6005600083815260200190815260200160002060040160159054906101000a900460ff166003811115610caa57610ca96134fc565b5b1415610cbe57610cb981611ebf565b610d18565b600380811115610cd157610cd06134fc565b5b6005600083815260200190815260200160002060040160159054906101000a900460ff166003811115610d0757610d066134fc565b5b1415610d1757610d168161214f565b5b5b5b50565b6060610d79600260008573ffffffffffffffffffffffffffffffffffffffff1673ffffffffffffffffffffffffffffffffffffffff1681526020019081526020016000206000848152602001908152602001600020600001611dcf565b905092915050565b60006005600083815260200190815260200160002060040160149054906101000a900460ff169050919050565b81813373ffffffffffffffffffffffffffffffffffffffff168273ffffffffffffffffffffffffffffffffffffffff1663217b2270836040518263ffffffff1660e01b8152600401610e009190613a5c565b60206040518083038186803b158015610e1857600080fd5b505afa158015610e2c573d6000803e3d6000fd5b505050506040513d601f19601f82011682018060405250810190610e509190613a8c565b73ffffffffffffffffffffffffffffffffffffffff1614610ea6576040517f08c379a0000000000000000000000000000000000000000000000000000000008152600401610e9d90613b05565b60405180910390fd5b8383610ef8816000808573ffffffffffffffffffffffffffffffffffffffff1673ffffffffffffffffffffffffffffffffffffffff168152602001908152602001600020611df090919063ffffffff16565b610f37576040517f08c379a0000000000000000000000000000000000000000000000000000000008152600401610f2e90613b71565b60405180910390fd5b610f418686612191565b610f4b868661226e565b610f558686612317565b505050505050565b818134600360008473ffffffffffffffffffffffffffffffffffffffff1673ffffffffffffffffffffffffffffffffffffffff16815260200190815260200160002060008381526020019081526020016000206005015414610ff4576040517f08c379a0000000000000000000000000000000000000000000000000000000008152600401610feb90613cdb565b60405180910390fd5b8383611046816000808573ffffffffffffffffffffffffffffffffffffffff1673ffffffffffffffffffffffffffffffffffffffff168152602001908152602001600020611df090919063ffffffff16565b611085576040517f08c379a000000000000000000000000000000000000000000000000000000000815260040161107c90613b71565b60405180910390fd5b60008673ffffffffffffffffffffffffffffffffffffffff1663217b2270876040518263ffffffff1660e01b81526004016110c09190613a5c565b60206040518083038186803b1580156110d857600080fd5b505afa1580156110ec573d6000803e3d6000fd5b505050506040513d601f19601f820116820180604052508101906111109190613a8c565b9050600061111e8888611395565b905061112a8888612191565b611134888861226e565b61113e8888612317565b600061114d8989848633612435565b905061115f8984838b600060016126a7565b8073ffffffffffffffffffffffffffffffffffffffff166108fc839081150290604051600060405180830381858888f193505050501580156111a5573d6000803e3d6000fd5b50505050505050505050565b600061125583600260008873ffffffffffffffffffffffffffffffffffffffff1673ffffffffffffffffffffffffffffffffffffffff168152602001908152602001600020600087815260200190815260200160002060060160008573ffffffffffffffffffffffffffffffffffffffff1673ffffffffffffffffffffffffffffffffffffffff168152602001908152602001600020611d9c90919063ffffffff16565b9050949350505050565b6060806000600260008673ffffffffffffffffffffffffffffffffffffffff1673ffffffffffffffffffffffffffffffffffffffff16815260200190815260200160002060008581526020019081526020016000209050606060005b6112c783600701611d6d565b81101561132b576112f96112e78285600701611d8290919063ffffffff16565b84600901611d9c90919063ffffffff16565b82828151811061130c5761130b6139a6565b5b602002602001018181525050808061132390613a04565b9150506112bb565b50611387600260008873ffffffffffffffffffffffffffffffffffffffff1673ffffffffffffffffffffffffffffffffffffffff1681526020019081526020016000206000878152602001908152602001600020600701611dcf565b819350935050509250929050565b6000600360008473ffffffffffffffffffffffffffffffffffffffff1673ffffffffffffffffffffffffffffffffffffffff168152602001908152602001600020600083815260200190815260200160002060050154905092915050565b60606000600260008673ffffffffffffffffffffffffffffffffffffffff1673ffffffffffffffffffffffffffffffffffffffff16815260200190815260200160002060008581526020019081526020016000209050606060005b6114978360020160008773ffffffffffffffffffffffffffffffffffffffff1673ffffffffffffffffffffffffffffffffffffffff16815260200190815260200160002061272c565b811015611523576114f1818460020160008873ffffffffffffffffffffffffffffffffffffffff1673ffffffffffffffffffffffffffffffffffffffff16815260200190815260200160002061274190919063ffffffff16565b828281518110611504576115036139a6565b5b602002602001018181525050808061151b90613a04565b91505061144e565b5080925050509392505050565b6005600082815260200190815260200160002060040160009054906101000a900473ffffffffffffffffffffffffffffffffffffffff1673ffffffffffffffffffffffffffffffffffffffff163373ffffffffffffffffffffffffffffffffffffffff16148061160157506005600082815260200190815260200160002060030160009054906101000a900473ffffffffffffffffffffffffffffffffffffffff1673ffffffffffffffffffffffffffffffffffffffff163373ffffffffffffffffffffffffffffffffffffffff16145b611640576040517f08c379a000000000000000000000000000000000000000000000000000000000815260040161163790613d6d565b60405180910390fd5b60006003811115611654576116536134fc565b5b6005600083815260200190815260200160002060040160149054906101000a900460ff16600381111561168a576116896134fc565b5b146116ca576040517f08c379a00000000000000000000000000000000000000000000000000000000081526004016116c190613c6f565b60405180910390fd5b6005600082815260200190815260200160002060040160009054906101000a900473ffffffffffffffffffffffffffffffffffffffff1673ffffffffffffffffffffffffffffffffffffffff163373ffffffffffffffffffffffffffffffffffffffff16141561183857600380811115611747576117466134fc565b5b6005600083815260200190815260200160002060040160159054906101000a900460ff16600381111561177d5761177c6134fc565b5b5050600380811115611792576117916134fc565b5b6005600083815260200190815260200160002060040160169054906101000a900460ff1660038111156117c8576117c76134fc565b5b14156117dc576117d781612758565b611837565b600160038111156117f0576117ef6134fc565b5b6005600083815260200190815260200160002060040160169054906101000a900460ff166003811115611826576118256134fc565b5b1415611836576118358161214f565b5b5b5b6005600082815260200190815260200160002060030160009054906101000a900473ffffffffffffffffffffffffffffffffffffffff1673ffffffffffffffffffffffffffffffffffffffff163373ffffffffffffffffffffffffffffffffffffffff1614156119a6576003808111156118b5576118b46134fc565b5b6005600083815260200190815260200160002060040160169054906101000a900460ff1660038111156118eb576118ea6134fc565b5b5050600380811115611900576118ff6134fc565b5b6005600083815260200190815260200160002060040160159054906101000a900460ff166003811115611936576119356134fc565b5b141561194a5761194581612758565b6119a5565b6001600381111561195e5761195d6134fc565b5b6005600083815260200190815260200160002060040160159054906101000a900460ff166003811115611994576119936134fc565b5b14156119a4576119a38161214f565b5b5b5b50565b6060611a06600260008573ffffffffffffffffffffffffffffffffffffffff1673ffffffffffffffffffffffffffffffffffffffff1681526020019081526020016000206000848152602001908152602001600020600301611dcf565b905092915050565b6060806000600360008673ffffffffffffffffffffffffffffffffffffffff1673ffffffffffffffffffffffffffffffffffffffff16815260200190815260200160002060008581526020019081526020016000209050606060005b611a7683600001611d6d565b811015611ada57611aa8611a968285600001611d8290919063ffffffff16565b84600201611d9c90919063ffffffff16565b828281518110611abb57611aba6139a6565b5b6020026020010181815250508080611ad290613a04565b915050611a6a565b50611ae782600001611dcf565b819350935050509250929050565b6000808091505092915050565b611b0a612dde565b600160008473ffffffffffffffffffffffffffffffffffffffff1673ffffffffffffffffffffffffffffffffffffffff1681526020019081526020016000206000838152602001908152602001600020600380602002604051908101604052809291908260038015611bb6576020028201916000905b82829054906101000a900460ff16151581526020019060010190602082600001049283019260010382029150808411611b805790505b5050505050905092915050565b83833373ffffffffffffffffffffffffffffffffffffffff168273ffffffffffffffffffffffffffffffffffffffff1663217b2270836040518263ffffffff1660e01b8152600401611c159190613a5c565b60206040518083038186803b158015611c2d57600080fd5b505afa158015611c41573d6000803e3d6000fd5b505050506040513d601f19601f82011682018060405250810190611c659190613a8c565b73ffffffffffffffffffffffffffffffffffffffff1614611cbb576040517f08c379a0000000000000000000000000000000000000000000000000000000008152600401611cb290613b05565b60405180910390fd5b8585611d0d816000808573ffffffffffffffffffffffffffffffffffffffff1673ffffffffffffffffffffffffffffffffffffffff168152602001908152602001600020611df090919063ffffffff16565b15611d4d576040517f08c379a0000000000000000000000000000000000000000000000000000000008152600401611d4490613dd9565b60405180910390fd5b611d588888876128d4565b611d63888888611e62565b5050505050505050565b6000611d7b826000016129f7565b9050919050565b6000611d918360000183612a08565b60001c905092915050565b6000611dc4836000018373ffffffffffffffffffffffffffffffffffffffff1660001b612a33565b60001c905092915050565b60606000611ddf83600001612aaf565b905060608190508092505050919050565b6000611dff8360000183612b0b565b905092915050565b600360008373ffffffffffffffffffffffffffffffffffffffff1673ffffffffffffffffffffffffffffffffffffffff1681526020019081526020016000206000828152602001908152602001600020600501600090555050565b80600360008573ffffffffffffffffffffffffffffffffffffffff1673ffffffffffffffffffffffffffffffffffffffff168152602001908152602001600020600084815260200190815260200160002060050181905550505050565b60006064605a6005600085815260200190815260200160002060020154611ee69190613df9565b611ef09190613e82565b905060006064600a6005600086815260200190815260200160002060020154611f199190613df9565b611f239190613e82565b90506000611f7d6005600086815260200190815260200160002060000160009054906101000a900473ffffffffffffffffffffffffffffffffffffffff166005600087815260200190815260200160002060010154611af5565b90506120466005600086815260200190815260200160002060000160009054906101000a900473ffffffffffffffffffffffffffffffffffffffff166005600087815260200190815260200160002060030160009054906101000a900473ffffffffffffffffffffffffffffffffffffffff166005600088815260200190815260200160002060040160009054906101000a900473ffffffffffffffffffffffffffffffffffffffff1660056000898152602001908152602001600020600101546001806126a7565b6005600085815260200190815260200160002060030160009054906101000a900473ffffffffffffffffffffffffffffffffffffffff1673ffffffffffffffffffffffffffffffffffffffff166108fc849081150290604051600060405180830381858888f193505050501580156120c2573d6000803e3d6000fd5b508073ffffffffffffffffffffffffffffffffffffffff166108fc839081150290604051600060405180830381858888f19350505050158015612109573d6000803e3d6000fd5b5060016005600086815260200190815260200160002060040160146101000a81548160ff02191690836003811115612144576121436134fc565b5b021790555050505050565b60026005600083815260200190815260200160002060040160146101000a81548160ff02191690836003811115612189576121886134fc565b5b021790555050565b600260008373ffffffffffffffffffffffffffffffffffffffff1673ffffffffffffffffffffffffffffffffffffffff168152602001908152602001600020600082815260200190815260200160002060008082016000808201600080820160006121fc9190612e00565b505050506003820160008082016000808201600061221a9190612e00565b50505050600782016000808201600080820160006122389190612e00565b5050505060098201600080820160008082016000808201600080820160006122609190612e00565b505050505050505050505050565b600360008373ffffffffffffffffffffffffffffffffffffffff1673ffffffffffffffffffffffffffffffffffffffff168152602001908152602001600020600082815260200190815260200160002060008082016000808201600080820160006122d99190612e00565b5050505060028201600080820160008082016000808201600080820160006123019190612e00565b5050505050505050600582016000905550505050565b612367816000808573ffffffffffffffffffffffffffffffffffffffff1673ffffffffffffffffffffffffffffffffffffffff168152602001908152602001600020612b2e90919063ffffffff16565b50600160008373ffffffffffffffffffffffffffffffffffffffff1673ffffffffffffffffffffffffffffffffffffffff168152602001908152602001600020600082815260200190815260200160002060006123c49190612e21565b8173ffffffffffffffffffffffffffffffffffffffff16630b0c6d8230836040518363ffffffff1660e01b81526004016123ff929190613eb3565b600060405180830381600087803b15801561241957600080fd5b505af115801561242d573d6000803e3d6000fd5b505050505050565b60006004600081548092919061244a90613a04565b919050555060006040518061010001604052808873ffffffffffffffffffffffffffffffffffffffff1681526020018781526020018681526020018573ffffffffffffffffffffffffffffffffffffffff1681526020018473ffffffffffffffffffffffffffffffffffffffff168152602001600060038111156124d1576124d06134fc565b5b8152602001600060038111156124ea576124e96134fc565b5b815260200160006003811115612503576125026134fc565b5b81525090508060056000600454815260200190815260200160002060008201518160000160006101000a81548173ffffffffffffffffffffffffffffffffffffffff021916908373ffffffffffffffffffffffffffffffffffffffff160217905550602082015181600101556040820151816002015560608201518160030160006101000a81548173ffffffffffffffffffffffffffffffffffffffff021916908373ffffffffffffffffffffffffffffffffffffffff16021790555060808201518160040160006101000a81548173ffffffffffffffffffffffffffffffffffffffff021916908373ffffffffffffffffffffffffffffffffffffffff16021790555060a08201518160040160146101000a81548160ff02191690836003811115612632576126316134fc565b5b021790555060c08201518160040160156101000a81548160ff02191690836003811115612662576126616134fc565b5b021790555060e08201518160040160166101000a81548160ff02191690836003811115612692576126916134fc565b5b02179055509050503091505095945050505050565b8573ffffffffffffffffffffffffffffffffffffffff1663511b6952868686866126d28b8b89612b45565b6040518663ffffffff1660e01b81526004016126f2959493929190613eeb565b600060405180830381600087803b15801561270c57600080fd5b505af1158015612720573d6000803e3d6000fd5b50505050505050505050565b600061273a826000016129f7565b9050919050565b60006127508360000183612a08565b905092915050565b6127ff6005600083815260200190815260200160002060000160009054906101000a900473ffffffffffffffffffffffffffffffffffffffff16306005600085815260200190815260200160002060030160009054906101000a900473ffffffffffffffffffffffffffffffffffffffff166005600086815260200190815260200160002060010154600160056000888152602001908152602001600020600201546126a7565b6005600082815260200190815260200160002060040160009054906101000a900473ffffffffffffffffffffffffffffffffffffffff1673ffffffffffffffffffffffffffffffffffffffff166108fc60056000848152602001908152602001600020600201549081150290604051600060405180830381858888f19350505050158015612891573d6000803e3d6000fd5b5060036005600083815260200190815260200160002060040160146101000a81548160ff021916908360038111156128cc576128cb6134fc565b5b021790555050565b612924826000808673ffffffffffffffffffffffffffffffffffffffff1673ffffffffffffffffffffffffffffffffffffffff168152602001908152602001600020612c2390919063ffffffff16565b5080600160008573ffffffffffffffffffffffffffffffffffffffff1673ffffffffffffffffffffffffffffffffffffffff1681526020019081526020016000206000848152602001908152602001600020906003612984929190612e28565b508273ffffffffffffffffffffffffffffffffffffffff1663cf5182ba30846040518363ffffffff1660e01b81526004016129c0929190613eb3565b600060405180830381600087803b1580156129da57600080fd5b505af11580156129ee573d6000803e3d6000fd5b50505050505050565b600081600001805490509050919050565b6000826000018281548110612a2057612a1f6139a6565b5b9060005260206000200154905092915050565b6000808360020160008481526020019081526020016000205490506000801b81141580612a665750612a658484612c3a565b5b612aa5576040517f08c379a0000000000000000000000000000000000000000000000000000000008152600401612a9c90613f91565b60405180910390fd5b8091505092915050565b606081600001805480602002602001604051908101604052809291908181526020018280548015612aff57602002820191906000526020600020905b815481526020019060010190808311612aeb575b50505050509050919050565b600080836001016000848152602001908152602001600020541415905092915050565b6000612b3d8360000183612c5a565b905092915050565b60607f5d4750030310507a00ed34b9c56808c5423b741a733df02978ef34f07a4b87d7848484604051602001612b7d9392919061401a565b604051602081830303815290604052604051602401612b9d929190614057565b6040516020818303038152906040527f6fb80336000000000000000000000000000000000000000000000000000000007bffffffffffffffffffffffffffffffffffffffffffffffffffffffff19166020820180517bffffffffffffffffffffffffffffffffffffffffffffffffffffffff838183161783525050505090509392505050565b6000612c328360000183612d6e565b905092915050565b6000612c528284600001611df090919063ffffffff16565b905092915050565b60008083600101600084815260200190815260200160002054905060008114612d62576000600182612c8c9190614087565b9050600060018660000180549050612ca49190614087565b9050818114612d13576000866000018281548110612cc557612cc46139a6565b5b9060005260206000200154905080876000018481548110612ce957612ce86139a6565b5b90600052602060002001819055508387600101600083815260200190815260200160002081905550505b85600001805480612d2757612d266140bb565b5b600190038181906000526020600020016000905590558560010160008681526020019081526020016000206000905560019350505050612d68565b60009150505b92915050565b6000612d7a8383612b0b565b612dd3578260000182908060018154018082558091505060019003906000526020600020016000909190919091505582600001805490508360010160008481526020019081526020016000208190555060019050612dd8565b600090505b92915050565b6040518060600160405280600390602082028036833780820191505090505090565b5080546000825590600052602060002090810190612e1e9190612ec1565b50565b5060009055565b826003601f01602090048101928215612eb05791602002820160005b83821115612e8157835183826101000a81548160ff0219169083151502179055509260200192600101602081600001049283019260010302612e44565b8015612eae5782816101000a81549060ff0219169055600101602081600001049283019260010302612e81565b505b509050612ebd9190612ede565b5090565b5b80821115612eda576000816000905550600101612ec2565b5090565b5b80821115612ef7576000816000905550600101612edf565b5090565b600082825260208201905092915050565b7f7265636569766500000000000000000000000000000000000000000000000000600082015250565b6000612f42600783612efb565b9150612f4d82612f0c565b602082019050919050565b600073ffffffffffffffffffffffffffffffffffffffff82169050919050565b6000612f8382612f58565b9050919050565b612f9381612f78565b82525050565b6000819050919050565b612fac81612f99565b82525050565b600081519050919050565b600082825260208201905092915050565b60005b83811015612fec578082015181840152602081019050612fd1565b83811115612ffb576000848401525b50505050565b6000601f19601f8301169050919050565b600061301d82612fb2565b6130278185612fbd565b9350613037818560208601612fce565b61304081613001565b840191505092915050565b6000608082019050818103600083015261306481612f35565b90506130736020830186612f8a565b6130806040830185612fa3565b81810360608301526130928184613012565b9050949350505050565b7f66616c6c6261636b000000000000000000000000000000000000000000000000600082015250565b60006130d2600883612efb565b91506130dd8261309c565b602082019050919050565b82818337600083830152505050565b60006131038385612fbd565b93506131108385846130e8565b61311983613001565b840190509392505050565b6000608082019050818103600083015261313d816130c5565b905061314c6020830187612f8a565b6131596040830186612fa3565b818103606083015261316c8184866130f7565b905095945050505050565b6000604051905090565b600080fd5b61318f81612f78565b811461319a57600080fd5b50565b6000813590506131ac81613186565b92915050565b6000819050919050565b6131c5816131b2565b81146131d057600080fd5b50565b6000813590506131e2816131bc565b92915050565b60008060006060848603121561320157613200613181565b5b600061320f8682870161319d565b9350506020613220868287016131d3565b92505060406132318682870161319d565b9150509250925092565b600081519050919050565b600082825260208201905092915050565b6000819050602082019050919050565b61327081612f78565b82525050565b60006132828383613267565b60208301905092915050565b6000602082019050919050565b60006132a68261323b565b6132b08185613246565b93506132bb83613257565b8060005b838110156132ec5781516132d38882613276565b97506132de8361328e565b9250506001810190506132bf565b5085935050505092915050565b600081519050919050565b600082825260208201905092915050565b6000819050602082019050919050565b61332e81612f99565b82525050565b60006133408383613325565b60208301905092915050565b6000602082019050919050565b6000613364826132f9565b61336e8185613304565b935061337983613315565b8060005b838110156133aa5781516133918882613334565b975061339c8361334c565b92505060018101905061337d565b5085935050505092915050565b600060408201905081810360008301526133d1818561329b565b905081810360208301526133e58184613359565b90509392505050565b6133f781612f99565b811461340257600080fd5b50565b600081359050613414816133ee565b92915050565b60008060006060848603121561343357613432613181565b5b60006134418682870161319d565b9350506020613452868287016131d3565b925050604061346386828701613405565b9150509250925092565b60006020828403121561348357613482613181565b5b600061349184828501613405565b91505092915050565b600080604083850312156134b1576134b0613181565b5b60006134bf8582860161319d565b92505060206134d0858286016131d3565b9150509250929050565b600060208201905081810360008301526134f4818461329b565b905092915050565b7f4e487b7100000000000000000000000000000000000000000000000000000000600052602160045260246000fd5b6004811061353c5761353b6134fc565b5b50565b600081905061354d8261352b565b919050565b600061355d8261353f565b9050919050565b61356d81613552565b82525050565b60006020820190506135886000830184613564565b92915050565b600080600080608085870312156135a8576135a7613181565b5b60006135b68782880161319d565b94505060206135c7878288016131d3565b93505060406135d88782880161319d565b92505060606135e98782880161319d565b91505092959194509250565b600060208201905061360a6000830184612fa3565b92915050565b600081519050919050565b600082825260208201905092915050565b6000819050602082019050919050565b613645816131b2565b82525050565b6000613657838361363c565b60208301905092915050565b6000602082019050919050565b600061367b82613610565b613685818561361b565b93506136908361362c565b8060005b838110156136c15781516136a8888261364b565b97506136b383613663565b925050600181019050613694565b5085935050505092915050565b600060208201905081810360008301526136e88184613670565b905092915050565b60006020820190506137056000830184612f8a565b92915050565b600060039050919050565b600081905092915050565b6000819050919050565b60008115159050919050565b6137408161372b565b82525050565b60006137528383613737565b60208301905092915050565b6000602082019050919050565b6137748161370b565b61377e8184613716565b925061378982613721565b8060005b838110156137ba5781516137a18782613746565b96506137ac8361375e565b92505060018101905061378d565b505050505050565b60006060820190506137d7600083018461376b565b92915050565b600080fd5b7f4e487b7100000000000000000000000000000000000000000000000000000000600052604160045260246000fd5b61381a82613001565b810181811067ffffffffffffffff82111715613839576138386137e2565b5b80604052505050565b600061384c613177565b90506138588282613811565b919050565b600067ffffffffffffffff821115613878576138776137e2565b5b602082029050919050565b600080fd5b6138918161372b565b811461389c57600080fd5b50565b6000813590506138ae81613888565b92915050565b60006138c76138c28461385d565b613842565b905080602084028301858111156138e1576138e0613883565b5b835b8181101561390a57806138f6888261389f565b8452602084019350506020810190506138e3565b5050509392505050565b600082601f830112613929576139286137dd565b5b60036139368482856138b4565b91505092915050565b60008060008060c0858703121561395957613958613181565b5b60006139678782880161319d565b9450506020613978878288016131d3565b935050604061398987828801613405565b925050606061399a87828801613914565b91505092959194509250565b7f4e487b7100000000000000000000000000000000000000000000000000000000600052603260045260246000fd5b7f4e487b7100000000000000000000000000000000000000000000000000000000600052601160045260246000fd5b6000613a0f82612f99565b91507fffffffffffffffffffffffffffffffffffffffffffffffffffffffffffffffff821415613a4257613a416139d5565b5b600182019050919050565b613a56816131b2565b82525050565b6000602082019050613a716000830184613a4d565b92915050565b600081519050613a8681613186565b92915050565b600060208284031215613aa257613aa1613181565b5b6000613ab084828501613a77565b91505092915050565b7f53656e64657220646f65736e2774206f776e2074686973204c5350382e000000600082015250565b6000613aef601d83612efb565b9150613afa82613ab9565b602082019050919050565b60006020820190508181036000830152613b1e81613ae2565b9050919050565b7f4c535038206973206e6f74206f6e2073616c652e000000000000000000000000600082015250565b6000613b5b601483612efb565b9150613b6682613b25565b602082019050919050565b60006020820190508181036000830152613b8a81613b4e565b9050919050565b7f6e6f74206275796572206f722073656c6c657220666f7220746869732074726160008201527f6465000000000000000000000000000000000000000000000000000000000000602082015250565b6000613bed602283612efb565b9150613bf882613b91565b604082019050919050565b60006020820190508181036000830152613c1c81613be0565b9050919050565b7f547261646520686173206265656e20636c6f7365640000000000000000000000600082015250565b6000613c59601583612efb565b9150613c6482613c23565b602082019050919050565b60006020820190508181036000830152613c8881613c4c565b9050919050565b7f596f75206469646e27742073656e6420656e6f756768204c5958000000000000600082015250565b6000613cc5601a83612efb565b9150613cd082613c8f565b602082019050919050565b60006020820190508181036000830152613cf481613cb8565b9050919050565b7f596f7520617265206e6f74206275796572206f722073656c6c657220666f722060008201527f7468697320747261646500000000000000000000000000000000000000000000602082015250565b6000613d57602a83612efb565b9150613d6282613cfb565b604082019050919050565b60006020820190508181036000830152613d8681613d4a565b9050919050565b7f4c535038206973206f6e2073616c652e00000000000000000000000000000000600082015250565b6000613dc3601083612efb565b9150613dce82613d8d565b602082019050919050565b60006020820190508181036000830152613df281613db6565b9050919050565b6000613e0482612f99565b9150613e0f83612f99565b9250817fffffffffffffffffffffffffffffffffffffffffffffffffffffffffffffffff0483118215151615613e4857613e476139d5565b5b828202905092915050565b7f4e487b7100000000000000000000000000000000000000000000000000000000600052601260045260246000fd5b6000613e8d82612f99565b9150613e9883612f99565b925082613ea857613ea7613e53565b5b828204905092915050565b6000604082019050613ec86000830185612f8a565b613ed56020830184613a4d565b9392505050565b613ee58161372b565b82525050565b600060a082019050613f006000830188612f8a565b613f0d6020830187612f8a565b613f1a6040830186613a4d565b613f276060830185613edc565b8181036080830152613f398184613012565b90509695505050505050565b7f456e756d657261626c654d61703a206e6f6e6578697374656e74206b65790000600082015250565b6000613f7b601e83612efb565b9150613f8682613f45565b602082019050919050565b60006020820190508181036000830152613faa81613f6e565b9050919050565b60008160601b9050919050565b6000613fc982613fb1565b9050919050565b6000613fdb82613fbe565b9050919050565b613ff3613fee82612f78565b613fd0565b82525050565b6000819050919050565b61401461400f82612f99565b613ff9565b82525050565b60006140268286613fe2565b6014820191506140368285613fe2565b6014820191506140468284614003565b602082019150819050949350505050565b600060408201905061406c6000830185613a4d565b818103602083015261407e8184613012565b90509392505050565b600061409282612f99565b915061409d83612f99565b9250828210156140b0576140af6139d5565b5b828203905092915050565b7f4e487b7100000000000000000000000000000000000000000000000000000000600052603160045260246000fdfea264697066735822122090e136e73086804ba8963ce08224ae455bfcd7c31cf3b19ed7d1bc15ec085f9d64736f6c63430008090033",
  "linkReferences": {},
  "deployedLinkReferences": {}
}